:020000041000EA
:1000000000B5324B212058609868022188439860DF
:10001000D860186158612E4B002199600221596106
:100020000121F02299502B49196001219960352056
:1000300000F044F80222904214D00621196600F024
:1000400034F8196E01211966002018661A6600F04E
:100050002CF8196E196E196E052000F02FF8012189
:100060000842F9D1002199601B49196000215960AB
:100070001A491B48016001219960EB211966A021F2
:10008000196600F012F800219960164914480160C1
:100090000121996001BC002800D000471248134993
:1000A000086003C880F30888084703B5996A0420EC
:1000B0000142FBD001200142F8D103BD02B5186610
:1000C0001866FFF7F2FF186E186E02BD00000240BE
:1000D000000000180000070000035F00212200005C
:1000E000F4000018222000A00001001008ED00E03C
:1000F00000000000000000000000000074B24E7A12
:1001000000200420F7010010C3010010C5010010F9
:10011000C1010010C1010010C1010010C101001097
:10012000C1010010C1010010C1010010C701001081
:10013000C1010010C1010010C9010010CB01001065
:10014000CD010010CD010010CD010010CD01001037
:10015000CD010010CD010010CD010010CD01001027
:10016000CD010010CD010010CD010010CD01001017
:10017000CD010010CD010010CD010010CD01001007
:10018000CD010010CD010010CD010010CD010010F7
:10019000CD010010CD010010CD010010CD010010E7
:1001A000CD010010CD010010CD010010CD010010D7
:1001B000CD010010CD010010CD010010CD010010C7
:1001C00000BE00BE00BE00BE00BE00BEEFF3058054
:1001D000103800BEF2EB8871841E0110AC1E0110B5
:1001E0003402001090A31AE700201F49086006C8D7
:1001F00081F3088810471D48006800282FD10DA4FE
:100200000ECC002902D000F012F8F9E71849194A7B
:10021000002000E001C19142FCD1174988471749ED
:1002200088471749884700BEFDE701C901C29A42C5
:10023000FBD37047AC1E0110C0000020481E0020F8
:10024000443C01100000042000000420443C011044
:10025000001004200010042000000000704709482E
:1002600003F072FB0047000008ED00E0000000D042
:10027000581E0020D83C0320D9210010B5050010DD
:10028000012300105756000006005250ABB36053D4
:10029000D805011006005250861C0302E805011023
:1002A000060052505422A29DF00501100500525044
:1002B000DE65F468443C0110F8B5C04606480749BD
:1002C000091A8B10C90FC91810B5491003D0044B77
:1002D000002B00D0984710BD481E0020481E00206B
:1002E00000000000054B10B5002B03D00449054861
:1002F00000E000BFFFF7E2FF10BDC04600000000B5
:10030000543C032060FF001070B50400174D21001D
:100310002A68174804F0D0FCA020C00584460124B8
:100320002B68144AD9021140134A14480A43990110
:100330006144086012484860124888600A612200DF
:100340009A40114B0B201A60104900F00FFB01215D
:100350000B2000F0D3FA2B68A0229C408623D20504
:10036000DB00D4500A4804F05BFB70BDE4110020B0
:1003700060FF0010FF7F00FF210012000CC004404E
:10038000502A0020A086010004240050950300108C
:10039000ACFF001070B50F4D0F4C29782278C9B210
:1003A000D2B20E4804F088FC0D4BA0211A6801233C
:1003B00093400C4AC9058B502B78002B05D00122A5
:1003C00023785340237000232B702078C0B2FFF7AE
:1003D0009BFF70BDCF3C0320E0110020CCFF00103C
:1003E000E41100200C04000070B52B4804F018FB49
:1003F000002000F05BF90400284804F011FB200005
:100400002168012238300BF075F90400244804F00B
:1004100007FB002C31D1234804F002FB224E234D70
:100420003222310028000BF049FAF7230400184269
:1004300008D00EF0F5FB1E4D02002300310028000D
:1004400001F062FF28001B490CF0A2FA00281EDB15
:10045000194804F031FC28000CF05EFA041E08D0A4
:100460000EF0DEFB154B01002200180004F024FC06
:10047000FEE7134804F0D4FA70BD20000EF0D0FB64
:10048000104B01002200180004F016FCC3E70E48D0
:1004900004F0C6FADCE7C0461C0001103C00011065
:1004A00064000110B8000110E8110020581F00205E
:1004B000DC000110F80001101801011038010110D2
:1004C000640101108C00011008010110F0B5C6464E
:1004D000040000B5210088B02B4804F0EDFB2B4F41
:1004E0002B4E3222390030000BF0E8F9F7230500DB
:1004F000184208D00EF094FB264C02002B00390065
:10050000200001F001FF002C23D1234B6C469846BC
:10051000224D234FA8442B783A002021200003F0DD
:10052000C1F90135210030000CF032FA4545F2D115
:100530001C4804F0C1FB30000CF0EEF9041E1CD086
:100540000EF06EFB184B01002200180004F0B4FB03
:10055000FEE7114B6C469846144D114FA8442B787A
:100560003A002021200003F09DF9013521003000E0
:100570000CF00EFA4545F2D1DAE70D4804F09CFB89
:1005800008B080BCB846F0BD9C010110E811002005
:10059000581F0020D4010110A0860100F0B00120F6
:1005A000FC0101100002011038010110502A002046
:1005B0002C020110F8B504F08BFB0EF07BFB2B48EE
:1005C00000F0C4FF2A4804F02BFA1F211E2000F07F
:1005D00085F8002200211E2000F098F81E2000213E
:1005E00000F0B6F806F0DCFD8023224A9B0111687A
:1005F00001274B40E021C9010B401F4901260B6038
:100600001E4B19681E4B4B401E490B401E490B6088
:1006100000231361FFF7E8FE1C4804F001FA0120F3
:1006200006F0DAFD1A4B010018601A4804F044FB8A
:10063000194C1A482178C9B204F03EFB0020FFF79C
:1006400063FE174804F0ECF90022164D237893421C
:10065000FCD02B78002BF9D120787040C0B2FFF786
:1006600035FF22782F70D2B2F0E7C0461027000085
:100670004C02011000C0044000D0044008C00440F7
:100680000B0000010F00000F08D00440740201109D
:10069000E411002090020110E0110020BC020110C2
:1006A000EC020110CF3C032001207047012805D83F
:1006B000AC239B005843024BC01870470020FCE756
:1006C000F811002001207047012803D8024A830155
:1006D000D01870470020FCE7A8140020094A10B584
:1006E00094464024830063441A68C000624080340A
:1006F00014408022520113431C60034B9C4660440B
:10070000416010BD04C0014000400140074B800023
:100710009C4660440368C90092000A435A400C2377
:100720001A4080235B0103431A60704704C00140F4
:10073000064B80009C4660440368090159408023B1
:1007400030225B010A4003431A60704704C0014035
:10075000084B80009C466044002905D0802340223D
:100760009B0103431A607047C02340229B0103434F
:100770001A60F8E704C001400123D022834012062A
:1007800093629361094A40219446830063441A6846
:10079000C0004A4080311140802252011343196049
:1007A000034B9C46052360444360704704C00140EE
:1007B00000400140024B18688007C00F7047C046D8
:1007C00000C0064070B5EFF3108C72B60D4D2B686B
:1007D000002BFCD0BFF35F8F0724CB08C618C05C8A
:1007E00001230C40A3401C000440034207D11843DE
:1007F0003070BFF35F8F2C608CF3108870BD1000D9
:1008000001F082FD2C0100D0F8B54746CE4688465F
:1008100080B5EFF3108C72B6214D2C68002CFCD003
:10082000BFF35F8F9A422CD8D4080727055D0619BD
:1008300001241740BC402C421FD0072101278946C4
:1008400009E0D408055D06194C4639001440A14062
:100850000C00294211D001329342F2D201204042D1
:10086000BFF35F8F00220E4B1A608CF310880028B4
:100870000FDBC0BCB946B046F8BD2543100035704B
:10088000EEE7BFF35F8F00232B608CF3108801200D
:1008900040424346002BECD0089801F035FDC0469D
:1008A0002C0100D00021044B044ABFF35F8F02C328
:1008B0009342FAD17047C046000100D0800100D0B9
:1008C000044A1078431CDBB2172B00D91023137095
:1008D0007047C046E814002010B5064B064C82B0A5
:1008E0000100009318221F232000FFF78DFF02B0A4
:1008F00010BDC04628030110A03703200123834008
:10090000002904D0034A1360034A13607047034A66
:100910001360FBE780E200E000E100E080E100E03E
:1009200001238340014A13607047C04600E200E0A3
:10093000084B10309B688000C358002B07D0064A34
:1009400000209B1A2F229A424041C0B270470020DB
:10095000FCE7C04600ED00E0EC140020024B103034
:100960009B688000C058704700ED00E070B50D0036
:10097000EFF3108672B60F4A1368002BFCD0BFF35A
:100980005F8F0D4B10309B6884001B590B4A9342BC
:1009900003D09D4201D001F0CFFC074B9B681D5155
:1009A000BFF35F8FBFF35F8F0022024B1A6086F3A5
:1009B000108870BD240100D000ED00E0CD010010D2
:1009C000F0B557464E46DE464546E0B585B00600D2
:1009D00001911700EFF3108B72B6664A1368002B73
:1009E000FCD0BFF35F8F0025634B5D579A46002D07
:1009F00000DAA2E06B00614C02935B199B00984601
:100A0000A146C1444B4652469B79103613705C4B4D
:100A1000B2009B68009299580B1B2F2B34D9594B6D
:100A2000994200D0A2E0029B42469C46564B654448
:100A3000AD006353554B0232A218043B9B1A1B05B1
:100A4000534A5B0D651913436B80524B0121AB80F8
:100A5000FF23AB71019BEF71AB604B460B43190059
:100A6000474B009A9B689950BFF35F8FBFF35F8F2E
:100A70000022404B1A608BF3108805B0F0BCBB46D7
:100A8000B246A946A046F0BD01200A008243D379B0
:100A9000BB422FD845464E4613003F491B1B5B41C6
:100AA0005943090D384B6353384B02356519043BE4
:100AB0005B1B1B05364D5B0D2B4373800426B44630
:100AC000E044131F44441B1B1B055B0D1D434B4699
:100AD000997101999D8099604946DF712F4B0143BF
:100AE0001360BDE75800C01880002018C679BE42C8
:100AF00029D902000623D356002BF3DA101D8246B3
:100B0000274803900426504676424E44361A300554
:100B1000400D844666461E48957106439680029AAB
:100B200094466544AA00A4181C4AA3712260019B44
:100B3000039AE771A280A36092E701F0FDFB002514
:100B400053465D5756E7101D8246908840050015B4
:100B500084464046D444664604302018301AE026C5
:100B60000005400D360230430390CBE701F0E4FB73
:100B700059E7C046240100D0D23C0320EC140020E9
:100B800000ED00E0CD01001000A1FFFF1C150020CA
:100B900000E0FFFF01BDFFFFAAAA00000148804757
:100BA00001BD0000F0B5DE4657464E464546E0B56D
:100BB0000C0083B0EFF3108972B6584A1368002B0B
:100BC000FCD0BFF35F8F564B9A68030010339F0031
:100BD000D559544A9046954232D0A54243D0524E00
:100BE000AA1B2F2A2CD801228240924651464F4AF6
:100BF00012681140019151464D4A1160BFF35F8F59
:100C0000EFF305829346002A33D101232A009A4349
:100C100093689C4208D177E04B005B189B00F31867
:100C20009968A1422AD01A00062151560029F3DA08
:100C3000019B002B19D052463E4B1A603B4B1A6069
:100C4000374B9B68DD51BFF35F8FBFF35F8F00228F
:100C5000324B1A6089F3108803B0F0BCBB46B24631
:100C6000A946A046F0BD1500EAE75246304B1A608F
:100C7000E6E79342C9D001F05FFBC6E7062159566B
:100C8000002921DB4A005018800034188046A068F3
:100C90009860E079D871062020569871002824DBEE
:100CA000A488F01A6405241544440019E0240005C2
:100CB000400D2402204398801F4B52181878920050
:100CC000B21890711970B3E7594600290FD1FF315E
:100CD00091711A49918018490A789A71184A9B1B98
:100CE0005B415A43120D0A70A2E71648E3E7164A21
:100CF0001649D21A083A5002400D0143998014490E
:100D000052080A43DA8093E706215156130000295E
:100D1000B8DA5A46002AEAD14546DCE7240100D079
:100D200000ED00E0CD010010EC14002000E100E037
:100D300080E100E080E200E0D23C032001BDFFFF43
:100D4000AAAA000001BD00002615002000F0FFFF48
:100D500000F8FFFF70B5EFF3058101240443EFF3C2
:100D6000108C72B6214A1368002BFCD0BFF35F8F42
:100D70001F4B05001F4AED1A6D416A43120D1E4DAF
:100D80008900AE6852B27658A6421CD00621595648
:100D900091421CD012215956914222D01E215956FF
:100DA000914220D02A2159560324914210D0134B4E
:100DB00019781A708171BFF35F8F00220B4B1A6094
:100DC0008CF3108870BDAB680D4C5C50EFE70024CD
:100DD0006100091989005B18FF21997109499980FF
:100DE000E5E70124F4E70224F2E7C046240100D03D
:100DF000EC140020AAAA000000ED00E0D23C032081
:100E0000CD01001001BDFFFF054B064A1360064AE5
:100E1000136053609360D3601361536193617047B3
:100E20008080808000E400E004E400E010B5084B1E
:100E3000084C82B001000093002205232000FFF738
:100E4000E3FC002801DB1F23181A02B010BDC046C6
:100E500044030110D73C032070B504000E001500B8
:100E6000FFF72EFD0100200000F006F8A680E580C7
:100E7000BFF35F8F70BDC046024B9C466144890042
:100E8000016070474000003410B50400FFF718FD02
:100E900001002000FFF7F0FFFF232371BFF35F8FF6
:100EA00010BDC04610B50400FFF70AFD0100200088
:100EB000FFF7E2FFFF23A380BFF35F8F10BDC046A3
:100EC00010B504000120FFF707FD044B9C46604469
:100ED00080002060BFF35F8F10BDC046400000342B
:100EE000034B9C46614489000160BFF35F8F7047EC
:100EF0004000003483680B4810B584466144624466
:100F00001201090159189B185C684A680120944233
:100F100001D802D00020C0B210BD1A680B689A42F6
:100F2000F9D8F7E7FFFFFF0F0A4B1968EFF31080BE
:100F300072B60A68002AFCD0BFF35F8F1B68BFF34C
:100F40005F8F00221A6080F3108840BF00200021CC
:100F50007047C046903C0320F8B5574645464E467C
:100F6000DE46E0B599460CAB1C780DAB1B7807004C
:100F700090469A460568002C44D1AC7B002C3BD0AF
:100F8000660029683619033E89194B78AB73002B2C
:100F900000D1EB7300238B704B700B702E4BE2185B
:100FA000BB6812019B1842461A604A465A600A9A68
:100FB0009A600B9ADA6000238B704B700B706B7B1E
:100FC0009B46002B32D022005946A8686B68984790
:100FD00000281DD05B46584629685B005B448E198B
:100FE000033BB070CA18CB5C002B00D073705B461B
:100FF00014706B735C451AD0F0BCBB46B246A94670
:10100000A046F8BD660029683619033E8919C5E770
:101010005B465B002A685B44033BD3189C709119C4
:10102000925D002A00D05A705B460B706C7342468A
:101030004B46387D00F0D6FB051E02D05346002BF0
:1010400004D00E9B002BD7D01D70D5E72100386847
:1010500000F0F8FDF5E7C046FFFFFF0FF0B5DE46F4
:1010600057464E4645460023E0B58BB00893674B84
:101070008200D45800239B46099000F029FB626847
:1010800006000F00EFF3108572B61368002BFCD03A
:10109000BFF35F8F23689C465B7B9946002B67D02C
:1010A000A2685B4B90464B441B01984443461A6828
:1010B0005B6810001900801BB941002962DD0998A6
:1010C00000F090FB0023002298460023069207932D
:1010D00000239A466368BFF35F8F5A461A6085F310
:1010E00010885346002B08D10028C6D10BB0F0BCA5
:1010F000BB46B246A946A046F0BD089B4146180231
:101100004B461843D047626806000F00EFF3108586
:1011100072B61368002BFCD0BFF35F8F002F4EDB3D
:1011200033003B4302D02369002B64D12368D97B71
:10113000002906D01A684800411852184946033A57
:1011400051709A7B002A01D14A469A734A46DA7353
:101150004B46E168013BCA5C0132CA545B462361DD
:101160006368BFF35F8F5A461A6085F3108884E77F
:1011700000230022984600230692079300230020B4
:101180009A46A7E7002901D1002898D1002160469E
:1011900000F0D6FC43461A685B6806920793434604
:1011A0009B689A464346DB689846E3684B44013B9C
:1011B0001B7808931B020343236100208AE72369FD
:1011C000002BB3D0069A079B8021921BBB410906D6
:1011D0008B4202D301220F4B524259460491012106
:1011E00003914946029141460191514620000091E8
:1011F000FFF7B2FEB2E700F06BFA32003B001218C4
:101200004B41802109068B42E7D3E3E7743C03207E
:10121000FFFFFF0FFFFFFF7F10B5144C6368002B2B
:1012200004D00A211248FFF727FE10BD2300114AFF
:101230001021206800F098FB032000F03DFA032005
:1012400000F040FB03200C4900F086FAFFF738FB62
:101250000A4B9C4603232375D0231B061B6860445E
:101260006375074B80006060DC60DAE734150020AE
:10127000903C0320F50E00105D100010400000347B
:10128000743C03200048704734150020F0B54E46EA
:101290005746DE464546E0B585B0019310AB1B7856
:1012A0000600039300239A46994600927268EFF372
:1012B000108B72B61368002BFCD0BFF35F8F3568BC
:1012C000AC7B002C00D17AE067002B683F19033F0C
:1012D000DB195A78AA73002A00D1EA734B4AA11885
:1012E000B2680901521800980199106051600E9976
:1012F00091600F99D1604A469A705A701A706B7B50
:101300009846002B00D171E022004146A8686B6826
:10131000984700285CD04346404629685B00434418
:10132000CF19033BB870CA18CB5C002B00D07B7080
:10133000434614706B73444559D0F3681B19013B45
:1013400018787368BFF35F8F4A461A608BF3108872
:101350005346002B08D10002204305B0F0BCBB4629
:10136000B246A946A046F0BD039B002B4CD00E9B75
:1013700000200F999847030004000D000B4343D051
:10138000002911DA009A019B121BAB4100920193D4
:1013900080221206934204D301231D4C5B4200932A
:1013A0000194039B9A4681E700F092F98022241869
:1013B0004D411206009401959542F2D3ECE7736813
:1013C000BFF35F8F1C608BF3108801204042C4E79D
:1013D00043465B002A684344033BD3189C70D119F1
:1013E000D25D002A00D05A7043460B706C73307D7A
:1013F000009A019B00F0F6F9824600289DD021005A
:10140000306800F01FFC98E70020A6E7FFFFFF0F01
:10141000FFFFFF7FF8B542680400EFF3108572B656
:101420001368002BFCD0BFF35F8F2068CEB2437BE4
:10143000B34209D0FF220A4003685700BA189B182C
:10144000033B9B78002B12D0FF22E3680A409B18D5
:10145000013B090A1B78C9B28B420ED00020636899
:10146000BFF35F8F00221A6085F31088F8BD2269F0
:101470008A42F3D100202361F1E7310000F0E2FB62
:10148000EDE7C046407D7047F0B504000D0006262C
:101490007642F717C64636196F4100B584B08F42C1
:1014A00014D811D000F014F932003B00121A8B410D
:1014B000002B15DC002B3ED02000290000F03CF969
:1014C00004B080BCB846F0BD8642EBD900260027A8
:1014D00000F0FEF832003B00121A8B41002BE9DDD0
:1014E000002302930193154B3200009314483B00F4
:1014F000FFF7CCFE0028DFDB00239846BC46114AEC
:10150000114F7B6A9C4504D8B96A8E42D4D99C4558
:10151000D2D11168EFF3108072B60B68002BFCD0AB
:10152000BFF35F8F1368BFF35F8F4146196080F38D
:10153000108820BFE5E7002ABED0D1E7290F0010B0
:1015400034150020903C03200040054070B5060093
:1015500000F0BEF8FA2204000D0000233000002144
:10156000920003F071F88023001969411B0699422B
:1015700002D3012002494042FFF786FF70BDC046FA
:10158000FFFFFF7F70B5EFF3058305000C0084B00B
:10159000002B0AD0164A0020536A9C4203D8926A54
:1015A0000130AA421FD304B070BD124E02930193C2
:1015B000114B0200009330000B00FFF767FE011E85
:1015C000E8DD20BF3000FFF725FF094B00205A6AF5
:1015D0009442E8D89B6A0130AB42E4D2A41A631E5D
:1015E0009C41E0B2DFE7E31A5A1E9341D8B2DAE732
:1015F0000040054034150020290F0010F0B5EFF32E
:101600000582D6464F4646461000C0B51038EFF367
:10161000108872B6214C2368002BFCD0BFF35F8F7B
:101620000123190081401E4D1F006963AA461D4D0C
:1016300029601D4D2E78AC463500C5402F402B4209
:1016400009D1BFF35F8F276088F31088E0BCBA46EA
:10165000B146A846F0BD53465F6A144B8500EB586F
:101660009F420ED36246124B8E43EB581670BFF367
:101670005F8F0022226088F31088002BE6D0984705
:10168000E4E70C4B92009C46624413681360BFF37E
:101690005F8F0023236088F31088D7E7280100D0EC
:1016A000004005403C700540D63C03209C3C032094
:1016B00040290020D03F054010B5034B0100180021
:1016C000024AFFF77FF810BDCE3C032068030110EB
:1016D000034B596A0A00986A596A8A42FAD17047DC
:1016E0000040054070B504000D00124A536A19000D
:1016F000966A536A8B42FAD13000190024184D4182
:10170000AB4211D80ED02B000A494A6A9A42FCD348
:1017100007D1084A02E0516A994202D1916AA14276
:10172000F9D370BDA642EED9012301246442E51726
:101730005B42E9E700400540064A536A9942FCD8FB
:1017400007D1044B02E05A6A914202D19A6A82425E
:10175000F9D370470040054070B504000D00EFF369
:10176000108672B61A4A1368002BFCD0BFF35F8F45
:10177000002D1BD02000FFF7F1F8164981420AD056
:101780002000FFF7F3F801212000FFF7B7F801234D
:10179000A340114A1360114BA400E550BFF35F8FC3
:1017A00000220B4B1A6086F3108870BD0121A14006
:1017B0000A4BA200D5500A4B20001A788A430549EB
:1017C0001A70FFF7EFF900212000FFF797F8E5E71F
:1017D000280100D0FD150010386005404029002088
:1017E000D63C0320F0B54F46D6464646C0B5070066
:1017F0002F4C616A0D00A66A616AA942FAD18B4238
:1018000008D805D00120E0BCBA46B146A846F0BDD4
:10181000B242F7D9EFF3108A72B626480168002960
:10182000FCD0BFF35F8F0125BD402349204C884683
:10183000097889462943C9B28C46414660460870FA
:10184000391D890065630A511C49B8004350216A5B
:101850000020294219D0616A0800A66A616A8142A3
:10186000FAD18B4219D801D1B24216D8CC451DD03D
:101870000F4B1F221D625D6301233A409340104AC3
:101880000120136043464A461A70BFF35F8F00225F
:10189000084B1A608AF31088B5E70020BFF35F8F0A
:1018A0000022044B1A608AF31088ACE70120ECE7B1
:1018B00000400540280100D0D63C03209C3C03207A
:1018C00080E200E0EFF3108C72B60A490B68002B3F
:1018D000FCD0BFF35F8F01238340074A07481362A0
:1018E00002789A430270BFF35F8F00230B608CF382
:1018F00010887047280100D000400540D63C0320E6
:1019000070B5050014001600002915D00C00002A3F
:1019100012D080686B689847296800280ED0730041
:101920009B196200033B1219CB18033A9C7088186C
:101930008A5C002A15D10670200070BD63001B1957
:101940007200033B9219CB18033A9E7088188A5C88
:10195000002A02D104703400EEE75A70047034009B
:10196000EAE75A700670E7E730B583600023CCB22F
:1019700043730133047342608373C4730D000068C2
:10198000012C06D9421C0133DBB2137003329C4296
:10199000F9D1FF2129404B005B18C0180023033800
:1019A000437030BDF8B505000C1E07D06300016818
:1019B0001B19033BCB185A78002A01D12000F8BD2F
:1019C000500080180338091800204F784870210013
:1019D00058702800FFF794FF390006002800FFF731
:1019E000E1FF0400002EE9D0002826D031002200BB
:1019F000A8686B689847296800280FD063001B19F6
:101A00007200033B9219CB18033A9E7088188A5CC7
:101A1000002A00D05A7004703400CFE773009B197D
:101A20006200033B1219CB18033A9C7088188A5C39
:101A3000002A00D05A700670C0E73400BEE7C046E6
:101A4000F0B557464546DE464E46E0B50D006B0004
:101A500001685B19DF1E0400C85D83B00192CA19DA
:101A6000002850D043001B18033BCB185E78B446C7
:101A7000002E1AD1019E002E42D0E67B002E04D00B
:101A800073009B19CB18033B5D70A37B002B00D127
:101A9000A573E57300282FD10023537003B0F0BC69
:101AA000BB46B246A946A046F0BD72006244033A66
:101AB0008A18517888460021517089465970320041
:101AC00001002000FFF71CFF43468246002B07D091
:101AD0005B0021684344033BCB185A78002A16D197
:101AE000424651462000FFF70BFF2168019BCA19AF
:101AF000002BC2D10028CFD043001B18033BCB18CA
:101B000000219970C8E7019B002BB6D1C4E75000B3
:101B1000801803380918487883464846487058703A
:101B200041462000FFF7ECFE594680462000FFF7B3
:101B300039FF414602002000FFF7E2FE8046CFE772
:101B4000F0B557464546DE464E46E0B583B00191B6
:101B5000457B04006B0000685B19DF1EC15DC21984
:101B6000002952D04B005B18033BC3185E78B44683
:101B7000002E1CD1019E002E44D0E67B002E04D006
:101B800073009B19C318033B5D70A37B002B00D12E
:101B9000A573E573002931D10023280053706173C8
:101BA00003B0F0BCBB46B246A946A046F0BD7200E9
:101BB0006244033A82185078804600205070814673
:101BC000587032002000FFF79BFE43468246002BF0
:101BD00007D05B0021684344033BCB185A78002AA6
:101BE00017D1424651462000FFF78AFE019B0100B3
:101BF0002068C219002BC0D10029CDD04B005B1842
:101C0000033BC31800209870C6E7019B002BB4D19A
:101C1000C2E75000801803380918487883464846C0
:101C20004870587041462000FFF76AFE59468046CA
:101C30002000FFF7B7FE414602002000FFF760FEDC
:101C40008046CEE770B5040000292CD0437B8B4240
:101C50002ED0056848004018033828188278002ADA
:101C600021D053009B18033BEA5CEE188A4202D154
:101C70001BE0002A08D053009B18033BEB185A784E
:101C80008A42F6D142785A70002301228370437051
:101C90002000FFF7D5FE617B02002000FFF730FE39
:101CA0006073012000E0002070BD43783370EBE7E3
:101CB00001221900FFF7C4FE60730120F4E7C0465B
:101CC000F8B5040006200D0000F0C2F9002844D049
:101CD0002A4B2B49E21853425A418023DB039C468E
:101CE0009205284B62441A60274B1A6010008B68DB
:101CF0009843FBD1214B254AE31859424B4180219F
:101D00005B0049009952062000F0A2F92900C000AA
:101D100001F074FEC30921D140270121260080254E
:101D20006162A36200232C36AD0135432B6006208F
:101D300000F08EF93900800001F060FE6022E36A55
:101D400053400E321A4080235B0133431A60104B1C
:101D5000236310232B600D3BA364F8BD0D4A93420F
:101D600003D900230C4F0D49D8E77F2202400132EE
:101D700052089F011900BF181300CFE70080FCBF75
:101D800000C0004000E0004000F00040AC3C0320F8
:101D900001030000FEFF0000C0FF3F00FFFF000046
:101DA00010B50C2082B000F0ADF9FEF703FD00285D
:101DB0000ED0854B854A1A605A609A60DA601A61C3
:101DC0005A619A61DA611A62814A5A6202B010BDA0
:101DD000804CA06700F0ECF901227F4B1A60636C25
:101DE000012BFCD103227D4B1A607A4A936B012BA5
:101DF000FCD1013301217A4A7A480093043300F080
:101E00002DF90523784A00930121784800F026F93E
:101E1000774B5A68FF2A02D8802252005A608022EB
:101E20006E4B694C12011A602169002905D0606966
:101E300001F0E4FD01300138FDD1E0226C4B6D482A
:101E400019680A40026002221968514001320A40B2
:101E5000042102609A681142FCD08021664A09017F
:101E60001160802252005A60644B2361644B5968B0
:101E7000FF2900D85A6003220121574B1A60604A9B
:101E800093681942FCD0E023106803405D4803606A
:101E9000126803234A4002211340594A03609368A1
:101EA0001942FCD08021584B090119608021574B01
:101EB000490051606361564B5A68FF2A00D8596047
:101EC0008022544B12011A60E169002905D0606933
:101ED00001F094FD01300138FDD1E0234C4A116836
:101EE0000B404D490B6080214C4B0901196080214A
:101EF000364B49005160E361494B5A68FF2A00D8CC
:101F000059608022474B12011A60216A002905D0CE
:101F1000606901F073FD01300138FDD1E023404AD2
:101F200011680B4040490B608021404B090119604A
:101F300080235B0053608022244BD20223623C4BFF
:101F40005968914200D25A6080223A4B12011A60BD
:101F5000616A002905D0606901F050FD0130013847
:101F6000FDD1E023324A11680B4033490B608021D8
:101F7000324B090119608023DB025360144B63620A
:101F80002F4B5A68FF2A02D8802252005A608022C2
:101F90002C4B12011A60A169002905D0606901F07B
:101FA0002DFD01300138FDD1E023254A11680B4099
:101FB00025490B608021254B0901196080235B00B6
:101FC0005360124BA36101E7A4370320006CDC02CD
:101FD0001BB70000008000403CB0004030B0004023
:101FE000002F685900800240008C864700C00240E4
:101FF000308000403090004030A00040001BB7000F
:102000003C8000403C9000403CA000404059730799
:102010005480004054B000405490004054A0004010
:102020006080004060B000406090004060A00040D0
:102030006C8000406CB000406C9000406CA0004090
:102040004880004048B000404890004048A0004010
:10205000014B8000C0587047A4370320F8B5040036
:102060000C2017001D000E0001F0C8FC43011B1AD4
:102070009901C91AC90009188901380001F0BEFC8C
:10208000069B29041B0319432368002B20DB194BF3
:10209000194DE3185A4253418022520194461B03C2
:1020A000164A63441360164A13601F00AA689743D8
:1020B000FBD1C023221D9B01134321222660A06077
:1020C0001A602268002AFCDA0822E1601A60F8BD72
:1020D0003F2322681340B342D9D1A3681B051B0DCF
:1020E0008342D4D1EE22E368D20213408B42CED198
:1020F000EDE7C0460040FDBF00C0004000E00040EA
:1021000000F000408023024A9B000343D3627047E3
:102110000080054010B5140080221C4BD2051A60C7
:1021200000281AD001231A4A18431A4BDA611A4AB6
:1021300042401A62596298628022144BD2051A609A
:102140001649174A1160E022D2041A60002C07D108
:102150008022144B12061A6010BD0E4BD861EBE7BB
:1021600063011B1B9A008023121912015B049A421F
:1021700008D20D4B1A60074B5A608022094BD205DA
:102180001A60E9E7084B094A1A60F4E700B0054015
:10219000D3C007B0008005402D3FF84FFCFF010081
:1021A0000820014000A005404C3C0320FFFFFF0039
:1021B000AA23064A1B0113602F230549D360054B50
:1021C00019605368002BFCDA7047C046004002409B
:1021D00000B0FA00006002402C4B2D4A70B51A6026
:1021E0002C4A2D4B2D491A6014008B689C43FBD15F
:1021F0002B4D2C4EB54208D2013E761BB60808CDB9
:10220000984723000134B342F9D1FFF7C9FD264AAC
:10221000214B1A60214A9368DB43DB01DD09002B67
:10222000F9D14022214B224C224E9A675A671A67F5
:10223000DA66B44208D223682000002B20D008348C
:10224000FEF730FEB442F6D31B4C1C4EC022B168E0
:10225000200002F07FFAB460FEF724FBFEF7D4FD05
:10226000FEF7DAFF164C174EB44208D2013E361B79
:10227000B60808CC98472B0001359E42F9D170BDB5
:102280000834FEF701FEB442D5D3DDE700E000409C
:10229000BFCDFBFEFE7F3C0000F0004000C00040D0
:1022A000301E0020401E0020FFFFFF0100F0014013
:1022B000181E0020301E00200000002000ED00E06D
:1022C000401E0020481E002000BEFDE7094A030012
:1022D0001068002805D00849C3188B4207D813603E
:1022E000704706480449C31810608B42F7D9012093
:1022F0004042F5E74438032000000420D83C032086
:1023000010B5FFF7E1FFC0460FB400B5084883B031
:1023100002F086FB049B002B07D005A91800019151
:1023200001F0F2FA034802F07BFB0120FFF7CCFF3B
:102330008C0301103013011010B50148FFF7E4FFC2
:102340009C0301109A4200D2885470477047C046DF
:10235000F8B557464546DE464E46E0B598460A9BD8
:1023600006009A460D9B0F00934615009B0710D15F
:102370000B9B0C9A93420CD213005C460B9A9D1A4D
:102380005D4422004346013439002020B047A54275
:10239000F7D10B9C6319002C09D01D0053462A1B52
:1023A000013C185D39004346B047002CF6D10D9B27
:1023B0009B070ED55B46EC1A0C9BA34209D99946A4
:1023C0002A004346390020200134B0470135A14599
:1023D000F6D82800F0BCBB46B246A946A046F8BDD8
:1023E000F0B54F464646D646C0B584B098460EABCB
:1023F0001B78129F994694460D9C109B119EBA071C
:1024000025D4002E61D19C4200D3C0E001223A4085
:1024100092461F2C00D9B9E00C9A551E302201E0DB
:10242000202C03D001342A55A342F9D85246002A61
:102430000DD0A6420BD90C9A551E3022202C02D169
:1024400055E0202C53D001342A55B442F9D1FA0674
:102450002DD57A0554D4002C4ED10F9B102B00D1D2
:1024600088E00F9B022B19D030230C9A01241370A3
:102470004B46002B20D02D230C9A135501340C9B76
:10248000624600930397434602960194FFF760FF6C
:1024900004B0E0BCBA46B146A846F0BD01240C9A8F
:1024A0006033137030220C9B1B191A700134202CDE
:1024B000E5D04B46002BDED17B0730D43B07DED581
:1024C00020230C9A13550134D9E7012215003D4011
:1024D000AA463A421CD04A46002A2BD10C323A4234
:1024E00028D19C42A5D21F2C96D9202E15D9202464
:1024F000FA06C4D57A0503D4A3421DD0B4421BD03A
:102500000F9B102B23D0022B0ED0202CB7D0C9E765
:102510009C429CD21F2C00D87EE7202497E72B23D7
:102520000C9A13550134AAE7202CA8D00C9B1B1938
:10253000013438E0013ED4E7631E012C00D18CE762
:102540000F9A102A25D0022A2AD01C00AAE7BB061F
:1025500007D4202C93D00C9B1A19013478231370C4
:10256000D3E7202C00D18AE758220C9B1B191A7044
:102570000134CAE7BB0604D478230C9A01241370F3
:1025800090E758230C9A012413708BE7202400262F
:102590005DE7023CBA06E7D40C9A12191C00DDE78D
:1025A0000C9A9246534462221A70AEE710B5002886
:1025B00000D110BD02F0E8F9FBE7C0460B0010B5F2
:1025C000002802D049681B68984710BDF0B5DE4668
:1025D00057464E464546E0B59BB09B46249B8946F0
:1025E0009846259B0B900C924046424619009A460D
:1025F00001F0D5FC002800D0D8E001224046514629
:10260000774B524201F0C6FC002800D0CEE00122F8
:1026100040465146734B524201F0A6FC002800D0C0
:10262000C4E0002200234046514601F09DFC0028F2
:1026300000D0B9E1424653460A9209938023289A72
:10264000DB001A400E92289A1A4201D106232693E3
:102650000A9A099B1600134300D0C7E0289B002567
:1026600000261B0500D49BE100230D93269A0D9BA9
:102670009A4200DC9FE1D31A013B26938023289ADB
:10268000DB001A430023002728920D93279B002488
:10269000BB4200D9DC1B0223289A1A400E92289ACA
:1026A000134203D07B427B415B421C400D9B002BBD
:1026B00007D00A9809992A00330001F0ECFB0A9030
:1026C0000991002200234046514601F04DFC0028AC
:1026D00005D0802000068446099961440991289A12
:1026E000414B0B9D13400493269B0A9A0293099B2E
:1026F00003940092019349465B4628000C9A00F02F
:102700008BF90400002F62D0289B220098061F231B
:10271000C0179843631C984649465B466530A847F6
:102720000D9A0025D317D4185C40D30F9A46013F69
:1027300001E0202D13D00AAA94461F2320006344F1
:102740000A2101355E1901F059F93031317020004C
:102750000A2101F053F926000400092EE9D80523C7
:102760000693002304930A330393534605970B9F64
:10277000029312AB009342465B46494638000195EE
:10278000FFF72EFE0E9B0400002B20D00C9BC51AD9
:10279000279BAB421BD91E0022005B4649462020E6
:1027A0000135B8470134AE42F6D810E0289B4246C6
:1027B0000493279B49460393269B0B980293534609
:1027C000009201935B460C9A00F026F90400200069
:1027D0001BB0F0BCBB46B246A946A046F0BDC04601
:1027E000FFFFEF7FFFFFEFFFFFF7FFFF734B099F37
:1027F0009C467800400D604401F0E4FB704A714B48
:1028000001F067FB704A714B01F03CFB3B03704ADF
:102810001B0B1A4304000D00300011006D4B002209
:1028200001F027FB6C4A6D4B01F053FB02000B00DB
:102830002000290001F026FB01F0DCFB0D9001F0E7
:10284000C1FB674A674B04000D0001F042FB002208
:10285000654B01F017FB01F0CDFB644A0600644BA9
:102860002000290001F035FB040030000D000F9618
:1028700001F0A8FB5F4A604B01F02BFB02000B004C
:102880002000290001F0F5FA02000B0006000F00FD
:1028900001F01FFB320004000D003B003000390046
:1028A00001F0F0FA002210901191544B2000290001
:1028B00001F0F1FA0022524B01F0E4FA02000B00A1
:1028C0002000290001F0E7FA00224E4B01F0DAFA6D
:1028D00002000B002000290001F0DDFA0D0080212C
:1028E000040032003B000020C90501F0C2FA0200DA
:1028F0000B002000290001F0C5FA02000B0010981F
:10290000119901F0C8FA0022314B01F0BBFA3E4B9D
:102910000F9C9C4664440022230501F0DAFA05006E
:102920000E0002000B000A98099901F01DFB002817
:102930000AD00D9B2800013B31000D930022304B43
:1029400001F0A9FA05000E00C6270D992B0063318E
:102950008F42BF4128997F420437090500D495E68C
:10296000334300D182E6099C284A2100284B0A986B
:1029700001F008FB002808D000222100254B0A980E
:1029800001F0F2FA002800D070E6269B002B00D15F
:102990007CE60E9B5A1E9341269AD31A269375E61F
:1029A000002304270D9371E643460A9380231B06F8
:1029B0005344099342E6002326935FE601FCFFFFA0
:1029C000FB799F501344D33FB3C8608B288AC63F1E
:1029D0000000F03F0000F83F61436F63A787D23FDC
:1029E00071A379094F930A400000E03F1655B5BB2B
:1029F000B16B0240EF39FAFE422EE63F00002C4058
:102A00000000244000001840FF0300002D431CEB91
:102A1000E2361A3F80842E41F0B54E46DE465746D8
:102A20004546E0B597B09946209E219F229B83465C
:102A3000984607910C923B0032003000390001F0BB
:102A4000AEFA002800D0ADE1012230003900CC4BB5
:102A5000524201F089FA002800D003E1012230003F
:102A60003900C84B524201F095FA002800D0D9E055
:102A7000002230003900C44B01F08CFA002800D04D
:102A8000BBE0002230003900C04B01F06DFA002895
:102A900000D0B2E0002200233000390001F064FAD7
:102AA000002800D0D3E000230D93249B5B0501D4C4
:102AB0000623984608AB9C46172200243023414643
:102AC000624404E0013413550139202C01D0092956
:102AD000F8D888463000390001F08CFA4246AC4BF9
:102AE000D2009B181A685B6805000892099301F0F0
:102AF00069FA02000B003000390001F0BAF9089AB7
:102B0000099B01F0E6F90A900B9101F097FA8246D1
:102B100001F054FA02000B000A980B9901F0A9F990
:102B200000229C4B0A900B9101F034FA002800D14E
:102B3000E2E001239C46E244504601F03FFA0200E5
:102B40000B000898099901F015FA002802D000231B
:102B50009A4601354346002B00D18BE008AB17267F
:102B60009C4608956644554614E001235B42434465
:102B70000A2128009A4600F041FF0134303137190C
:102B8000397028000A2100F039FF092D00D8D0E063
:102B9000D0460500202CE8D10EAB98460323249A9A
:102BA0001340012B00D0E8E0239A2023002A1DD0F7
:102BB0000D9A002A00D0FDE024990C320A4215D06B
:102BC000239A013A2392239A9A4200D805E108AA4F
:102BD0009446172130226144202B07D023980133DB
:102BE000CA54834200D1E9E0202BF7D1249A019303
:102BF0000392239A434602921EE0249B5846049374
:102C0000239B00960197039343460C9A02930799DE
:102C10004B46FFF7DBFC17B0F0BCBB46B246A946FB
:102C2000A046F0BD249B5B070ED403225A4B249987
:102C30000192039123990291009358464B460C9AB6
:102C40000799FFF785FBE6E70422544BEFE73B00CB
:102C500032000020002101F00CF9012306000F00D2
:102C60000D9322E7249B0393239B02930423019358
:102C70004B4BE1E7280001F0A5F902000B00300002
:102C8000390001F0F6F8434B002206000F0001F076
:102C90006BF90EAB984600280AD1002230003900AB
:102CA0003C4B01F077F9002802D1EB0700D5013544
:102CB000202C00D172E708AA944617232800634409
:102CC0000A2101341E1900F071FE303128003170E4
:102CD0000A2100F06BFE051EEAD10323249A13405B
:102CE000012B6DD0202C48D00D9B002B14D02D2211
:102CF0004146631C0A5579E700220A980B99254B37
:102D000001F032F9002800D024E75346002B30D1DF
:102D100001239C46E2441DE7249B5B0724D4249AAC
:102D20002300120700D461E72022414601330A55EF
:102D30005CE75746089D202C00D12DE7220030216A
:102D40004046002F09D00132B154202A00D123E798
:102D5000831A013BE318002BF5D10EAB98462E23C6
:102D60004146541C8B54A3E72B224146631C0A5551
:102D70003CE7DB0700D4EDE6CAE7202336E7C04690
:102D8000FFFFEFFFFFFFEF7F65CDCD4165CDCDC1EB
:102D9000600501100000E03FB0030110A80301101E
:102DA000B8030110249B0393239B029303230193F5
:102DB0000C4B41E7239A013A239217E7040091E76D
:102DC000239B002B8ED00D9B002B08D10C22249925
:102DD0002300114200D1F6E6F2E61C0082E7230050
:102DE000EEE6C046B4030110F0B5DE4657464E4647
:102DF0004546E0B5A1B01C002A9B92460993B94A0A
:102E0000B94B81468B461A60002900D12BE120780E
:102E10000027002800D12DE1B44B5E460893B44B47
:102E20000C9309E03A00534631007D1CC8472F003F
:102E300001342078002871D02528F3D110239B4637
:102E40000C3B9846023B00229C460134207825002A
:102E50000300203BDBB2102B03D808999B00CB5812
:102E60009F460300303B092B6BD9002398462A2844
:102E700000D18AE000230A932E2800D176E00300D7
:102E8000683BDBB2122B1CD89A499B00CB589F465B
:102E9000012301341A43D9E7634601341A43D5E7C5
:102EA000434601341A43D1E75B4601341A43CDE768
:102EB000082301341A43C9E780235B0068781A436A
:102EC000013567280AD824281DD90300253BDBB229
:102ED000422B18D80C999B00CB589F460300693BA6
:102EE000DBB20F2B0FD80121834C9940A4460C4034
:102EF0000B946446214200D002E20A2B00D1E1E0AB
:102F0000072B00D1B8E07B1C98463A0053463100AD
:102F10006C1CC8472078474600288DD1B3463C003A
:102F2000BA4501D853465F1E53463A005946002021
:102F3000C847200021B0F0BCBB46B246A946A04617
:102F4000F0BD002301009800C01801354000401872
:102F50002978030008003038303B0928F3D9984617
:102F6000002308000A932E2800D088E78023687881
:102F7000DB001A430300303B691C092B00D807E132
:102F80002A2800D116E10D0079E7099B02CB88467B
:102F9000002903DB60780993651C6BE702210A4373
:102FA00041464942884660780993651C62E7687823
:102FB0006C2800D123E280235B001A43013580E7AF
:102FC00080239B0068781A4301357AE7687868287F
:102FD00000D11AE2802301351A4372E7462800D156
:102FE0008BE10721099B0492424607338B4319006A
:102FF00003920A9A484602920CC9009201930991E1
:103000003A0053463100FFF707FD6C1C070010E73C
:103010007B1C98463A00534631002520C847474656
:103020006C1C06E7920700D431E2099B3A0001CB01
:1030300031009B46C0B25346C84743467C1C4744B8
:10304000012B00D8FBE2A8464D462200534601342E
:1030500031002020A847BC42F7D1A9465B4645462F
:1030600009936C1CE5E6254B20789946002700283B
:1030700000D0D1E6002453E7099B190008C988460F
:10308000002B00D1A6E021210A43934610A98C46CB
:103090001F220F21624409958C4615000B9C02E00B
:1030A000202C0CD01300604618400100373109284D
:1030B00000D80739013429551A090F2BF0D8099D7A
:1030C0000B9490E0099B02CB12930A9B8B46002B3A
:1030D0007AD108780221494200281AD001315C4691
:1030E00059440FE0E92D0010483C0320C0030110B3
:1030F0005004011004040110419000004D23001001
:103100008C4203D063780134002BF9D15B46E31A7B
:103110000B9380231100DB00194009911A4204D05F
:103120000A9B0B99994200D90B9302231900114075
:103130000D91134200D18BE1002800D173E1099B6E
:10314000002B00D142E10A9B3A009C465B46BC44FE
:10315000DB1B64469B464B460994A9461D0009E0CB
:1031600053463100571CA8475B46D85D002800D164
:1031700055E13A009442F3D12B004D469946099F00
:103180000D9B002B00D04EE1129B6C1C099350E666
:10319000002304009800C0180131400000190C7889
:1031A000030020003038303B0928F3D920000D00FF
:1031B0000A9364E6099B023501CBC143C917084055
:1031C0000A90099328785AE608780028A1D00A9B2B
:1031D000591E83E7102110008843113108438346AC
:1031E000520500D452E75B460693082305930A9BD9
:1031F0003A00049310230393002302930B9B3100A6
:10320000019318AB009348465346FFF7E9F843464D
:1032100007006C1C09930CE6202301009943472901
:1032200004D180231B011A4302239843452801D16E
:1032300020231A430721099B0492424607338B43FC
:10324000190003920A9A484602920CC9009201930F
:1032500009913A0053463100FFF7B8F96C1C07009A
:10326000E7E5622800D1F6E16F2800D132E1582865
:1032700000D1CFE010239A43063B0D93692800D07C
:1032800024E10B92530546D501230B9A9A430B92E6
:10329000692840D064283ED00B9A802311009B00FF
:1032A00019408B461A4200D0DCE1802314005B00F9
:1032B0001C401A4200D07BE213005B0600D48BE175
:1032C000FF22099B02CB11408B4609935B46002BE2
:1032D00000D08CE10B9A1033110099430B915205E9
:1032E00000D484E100240B9B0693434605930A9B7C
:1032F00004930D9B0393002361E120231A4370E69E
:1033000010230D937828ACD10C23110099430B9115
:103310005205B9D4BCE70B9A802311009B001940D9
:103320008B461A4200D0D8E0802314005B001C407A
:103330001A4200D0E2E113005B0600D527E113003A
:1033400009991B0600D495E208C91BB2D8171A18B0
:10335000424092B209919346DA0F1392002B09D1A1
:10336000802310220B99DB000B4091430B91002B23
:1033700000D01BE10B9A6123920600D54123DBB2FA
:1033800010A90A3B1F228C46129343466244A8466A
:1033900014970D9D5F461593B34616000AE030332F
:1033A000DBB201343355AF4200D24EE1202C00D1C4
:1033B0004BE107002900380000F020FBCBB20929BF
:1033C000EDD9129A94466344DBB2EAE75B46DB1B15
:1033D0009B460B9B4C4699465346AA461D003A0015
:1033E0002B003100A0475B460137D85D0028F6D19D
:1033F0004B460B932B00A14655469A46C0E6C02388
:103400009B00A8781A4302355BE5C023A8781A43CD
:10341000023556E520231A43103B0D9374E72B0029
:103420004D469946ACE60B9BBB46984500D8ABE6AB
:1034300047445C46A8464D46FF1A220053460134D5
:1034400031002020A847BC42F7D1A94645469BE65B
:103450000B9A531C904500D822E24346DB199C1A74
:103460004B46A9461D003A00534601373100202043
:10347000A847A742F7D12B004D4699464346013352
:103480000B935B461878002800D058E67CE643464C
:10349000012B00D802E27C1E4444A8464D463A0067
:1034A0005346013731002020A847A742F7D1A9464B
:1034B0004546099B220001CB31009846C0B25346D5
:1034C000C8474346671C09936C1CB2E4642800D1CA
:1034D000D7E619E708230D9316E70722099B073360
:1034E0009343013294469C44624609920CCB9C461D
:1034F000DB171093119310981199030053400E930A
:1035000064460B0063400F930E9B0F9C1B1A8C416B
:103510000E930F946346DB0F139300239B46634681
:103520001A433BD00B9A6123920600D54123DBB2AC
:103530000A3B1293434610A91F228C460024159380
:103540004B466244B1461497169527000E9C0F9D7A
:1035500090460D9E17930CE03032D2B243460137AD
:10356000DA55AB4500D177E1202F00D177E1040097
:103570000D00320000232000290000F07DFAD2B2B5
:10358000092AE9D9129B9C466244D2B2E6E7FF229F
:10359000099908C913401A000991DCE60B9A102317
:1035A0001100994300240B915205BBD50B9B069348
:1035B000434605930A9B04930D9B0393139B02932D
:1035C00018AB3A0001940093310053464846FEF789
:1035D00007FF6C1C07002CE413001B0600D458E105
:1035E000099B04CB1204120C934609936EE60B9AC6
:1035F0006123920600D5412310A91F228C46DBB21D
:1036000062440A3B139714965F461600AB4612932A
:103610000D9D08E03033DBB201343355AF421DD38A
:10362000202C1BD007002900380000F0E7F9CBB2AE
:103630000929EFD9129A94466344DBB2ECE75B4662
:10364000270009936C1CFFF7F4FB159B45465E466B
:103650009846149FAAE702230D9355E65D46139FF3
:10366000149E40E60722099B073393430132944698
:103670009C44624609921A685B6810009B461300DE
:103680005A46134307D10B9A1033110099430B91FB
:10369000520500D526E60B9A6123920600D54123F8
:1036A000DBB210A90A3B1F228C46129343466244A8
:1036B0001397159500245D460700B34690460D9E6E
:1036C00014930DE03032D2B2434601341A55002330
:1036D000AB4200D1D4E0202C00D1D4E007000D0093
:1036E000320000233800290000F0C6F9D2B2092ABE
:1036F000E8D9129B9C466244D2B2E5E7099B1A00C6
:1037000008CA1592DA179C185440DA0F1492002B4D
:1037100008D1802310220B99DB000B4091430B91C1
:10372000002B2BD10B9A6123920600D5412310A9BF
:103730001F228C46DBB262440A3B129713965F4607
:103740001600AB4609930D9D08E03033DBB201371C
:10375000F355AC420ED3202F0CD0040029002000DA
:1037600000F04CF9CBB20929EFD9099A9446634489
:10377000DBB2ECE75D46139EBB46129F0B9B3A0003
:103780000693434605930A9B310004930D9B4846DC
:103790000393149B6C1C02935B46019318AB00933C
:1037A0005346FEF71DFE159B07000993FFF741FBEB
:1037B000099B10CB1493002C08D18023DB0011004F
:1037C0001340102291430B91002B2BD10B9A6123B4
:1037D000920600D5412310A91F228C46DBB2624419
:1037E0000A3B129713965F461600AB4609930D9D50
:1037F00008E03033DBB20137F355AC420ED3202F53
:103800000CD004002900200000F0F8F8CBB2092900
:10381000EFD9099A94466344DBB2ECE75D46139E08
:10382000BB46129F0B9B3A000693434605930A9BA7
:10383000310004930D9B48460393002302935B469B
:10384000019318AB00935346FEF7CAFD149B070083
:1038500009936C1CFFF7EDFAA64200D884E6159B8D
:103860000E940F959846179B3C004E46169D994620
:10387000149F9BE608C9D8171A18424009916AE5B7
:10388000BE4200D827E7149B5E469846139F159DBD
:1038900029E5099B04CB9346099317E53C0008E60C
:1038A0000B93F0E50CB430B585B008AC08CC064DF0
:1038B0000A000094010028000394FFF795FA05B070
:1038C00030BC08BC02B018474523001010B5054CA9
:1038D00082B0009313000A0001002000FFF784FA71
:1038E00002B010BD4523001000B585B00391012141
:1038F00002900093034813004A4202A9FFF774FAAA
:1039000005B000BDBD25001010B5094A03001468BC
:1039100084B0002C08D0012200910648524203A92D
:10392000A047012004B010BD01F07AF80020F9E7AB
:10393000483C0320AD25001001480421014B1847E5
:103940006015002069390010142310B50100188893
:1039500004331B88984710BD162310B50100188842
:1039600002331B88984710BDF8B54746CE4680B550
:103970000F1E19D014239946043304000025012694
:1039800098464B461888434621681B88984701C4CF
:10399000431E9841013540420640AF42F1D130000C
:1039A000C0BCB946B046F8BD0126F8E7124A936F8D
:1039B0009B0815D29066D166002905D0FFE7FFE786
:1039C000FFE7516F106F704704B580210906C217D9
:1039D0005140002800D0C8430CF062FA002104BD19
:1039E000F0B5146E556E576F166FFFF7E3FF146650
:1039F000556657671667F0BD000000D0114A936FF7
:103A00009B0813D210665166002905D0FFE7FFE737
:103A1000FFE7516F106F704704B5002801D00020F8
:103A2000C0430CF03DFA002104BDC046F0B5146E51
:103A3000556E576F166FFFF7E5FF146655665767AB
:103A40001667F0BD000000D094464A4A926F920873
:103A5000624601D228E0C046F0B5464E346E756E1F
:103A6000776F366F00F020F89446424A1466556628
:103A7000576716676246F0BD94463E4A926F9208B9
:103A8000624601D254E0C046F0B53A4E346E756ECF
:103A9000776F366F00F04CF89446364A14665566D8
:103AA000576716676246F0BD002B24DB11D0002952
:103AB0003EDA00B5C943404200D1013100F038F888
:103AC000C943404200D10131DB43524200D10133AE
:103AD00000BD002AEBD1002801D1002905D000202B
:103AE000C90FC90701D1C043410800B50CF0C0F9A6
:103AF0000022002300BD00B500290ADBDB4352424F
:103B000000D1013300F014F8C943404200D1013123
:103B100000BDC943404200D10131DB43524200D1D4
:103B2000013300F005F8DB43524200D1013300BD00
:103B3000002923D1002B18D1002A0CD0BC460D4FF0
:103B400038667A6600210023FFE7FFE7FFE77A6F18
:103B5000386F67467047002801D00748010000B55C
:103B60000CF086F90022002300BD02000B000020AB
:103B700000217047000000D0FFFFFFFF002B00D0A6
:103B8000BFE0130C28D1002AE7D080B4114F39666A
:103B90007A66FFE7FFE730B4040C7B6F396F1B04D4
:103BA00023433B667A66FFE7FFE7FFE7C04684B240
:103BB0007B6F3D6F1B0423433B667A66FFE7FFE79D
:103BC000C04600232C042D0C7A6F386F0019694110
:103BD000B0BC7047000000D0F0B594460025140E2C
:103BE00001D112020835140F01D112010435940FCE
:103BF00001D192000235D40F01D152000135D40B0E
:103C00000134254F7C66254C3C660E0C93B2FFE7D1
:103C1000FFE7FFE73C6F6643360C7703BE4673430E
:103C2000DF0B5B04C01AB941130C7343DB18C91ACC
:103C3000CE086643360CB64493B273431F0F1B0184
:103C4000C01AB941130C73431F0B1B05C01AB941AD
:103C5000860D8F023E436643360C092D24DB520A43
:103C60007243801A7703460A6643360C16235B1BA1
:103C7000DE40DF40BF1964466643821B7046043550
:103C800006330100D940A840C01900D30131A24237
:103C900006D20023F0BD0000000000D0FFFFFFFFB0
:103CA000121B0130F3D3F1E709277F1BFE40644666
:103CB000A2B27243801A00D20139220C7243130C53
:103CC0001204821A99410B00704604351337010023
:103CD000F940A840801900D30131002B02D1A24243
:103CE0000AD2F0BD013000D30131121BFAD2013BE0
:103CF000F8D1A24200D2F0BD013000D30131121B35
:103D0000F7E7F0B51C0C00D080E00CB400251C0ACD
:103D100004D11B02160E3343120208351C0B04D1CA
:103D20001B01160F3343120104359C0B04D19B0079
:103D3000960F334392000235DC0B02D192185B419F
:103D400001351C00971864410134464F7C66464C8F
:103D50003C660E0CFFE7FFE7FFE7C0463C6F66439B
:103D6000360C7703BE4697B27743C01B00D20139A9
:103D7000C01B00D201399FB27743C91BC91B170C66
:103D800077437E04FF0B801BB941CE086643360C97
:103D90000C2D33DBB644120B1F053A431B0B97B2B5
:103DA0007743C01B00D201399FB27743C91B170C60
:103DB00077433E043F0C801BB941860D8F023E4382
:103DC000664329277F1BFE400C3D7746AF40BF1955
:103DD00030BCA2B2ABB272437343801A9941220C39
:103DE0007243130C1204801A994102000B00013730
:103DF000001BA941F9D2781E0021F0BD0C277F1BC2
:103E0000FE4077467F0BAF40FF19E0E700245D1CC2
:103E100007D0144F7D663966FFE7FFE7FFE7FFE74E
:103E20003C6F95B29EB265436643401BB141150C91
:103E30001E0C6543664336042F0C3E432D04401B85
:103E4000B141994204D202000B0020000021F0BDD4
:103E500001D19042F7D3801A994101349942F2D3AB
:103E6000F6E70000000000D0FFFFFFFF48404140A0
:103E7000484018B41B4B5B68FC46019308BD04DF47
:103E80001B41001018B4174B1B68FC46019308BD7A
:103E900000DF254100109446134A926F920809D220
:103EA000624618B40F4BDB68FC46019308BD0CDF7B
:103EB000DD4300100C4AF0B5146E556E576F166F47
:103EC0006246FFF7EEFF084A1466556657671667A5
:103ED000F0BD18B4034B9B68FC46019308BD08DF96
:103EE00081420010C0210020000000D0FFB55040EA
:103EF0004240504059404B40594000E0FFB5154FFB
:103F00004C00640D03D0BC4204D10C0314D8002033
:103F1000090D09055C00640D03D0BC4204D11C03EB
:103F20000AD800221B0D1B0501264B4009D44B402B
:103F300003D58B4200D18242FFBD9942FCD1904211
:103F4000FFBD0B43DB1803431343F5D0C9434918A6
:103F5000FFBD0000FF07000000B5FFF7CFFF01D055
:103F6000002000BD012000BD00B5FFF7C7FF804164
:103F700000BDC04600B5FFF7C1FF01D9002000BD5C
:103F8000012000BD00B5FFF7B1FF01D9002000BD41
:103F9000012000BD00B5FFF7A9FF804100BD012051
:103FA00040054A00121804D85A00121801D80020FF
:103FB0007047012070470020704700000021002852
:103FC00005D17047C1174840401AFAD0C90713B548
:103FD000064B1B6898470CBC441CA2401005120BF2
:103FE0000349091B09051943114310BD8C3C0320EB
:103FF0001F04000010B54C00620D8023D218DB00B6
:10400000D21A5B057E2A10DD9E3A13DACC1709031B
:10401000490819435242D140640001341532202A24
:1040200005DAD0400843604310BD002010BD0846AB
:10403000604310BDC80FC018013810BD18B4044B40
:104040005B6AFC46019308BD24DF8D45001000002B
:10405000C0210020132370B51D78012D15D010DD6F
:104060001C48FFF779FC1C4C01008022200000F066
:1040700071FB022D06D01948FFF766FC184B18603B
:1040800070BD154C174BA364F5E7164B124C23601B
:104090006360A360E36023616361A361E361236202
:1040A0006362A362E36223636363A363E3632364E2
:1040B0006364A364E36423656365A365E3652366C2
:1040C0006366A366E36623676367A367E367A36426
:1040D000D1E7C04653440000C02100204C3300000B
:1040E0008C3C0320E940001007B5604601880A0AAD
:1040F0000230DF2AFAD1C9B2820804D3028840888C
:104100000004104300E00068014A5050039007BDCE
:10411000C02100200FB403BC0CBCF0B50124E4079F
:10412000634000E0F0B50C0DCF0F661E3605891B0D
:10413000640503D3C943404200D30131640D03D069
:10414000661CF60A07D0E41B00207F00791C890753
:104150008912803C24031D0DDF0F6E1E36059B1B4C
:104160006D0503D3DB43524200D301336D0D03D001
:104170006E1CF60A07D0ED1B00227F007B1C9B07FC
:104180009B12803D2D032F1B661B58D4A446202E66
:1041900046DA20371400BC401D00BD40F2403341D8
:1041A0002A4380185941CB0F05D0C943C043002290
:1041B00064425041514162464D0D28D10D0D07D149
:1041C00000281FD0241940414941013A0D0DF9D072
:1041D000640006D3013000D30131002C01D1400826
:1041E0004000013A0BD4941CE40A04D11205114496
:1041F000DB071944F0BDD907204B194300E0D9076C
:104200000020F0BD0029DDD1002CDBD1F0BD013252
:10421000C6074008CD0728434908002EE1D0D9E75A
:104220003C2E29DA203E40371400BC4000D0012447
:10423000F24014431A00BB401C43D317ACE7AC4612
:10424000202F08DA20360400B4400D00B540F840B5
:1042500039412843A5E73C2F0CDA203F40360400C3
:10426000B44000D00124F84004430800B1400C439E
:10427000C117EAE710001900002494E70000F07F5E
:10428000F0B50C0D661E3605891BE60A6405640D43
:1042900002D0651CED0A04D0002001210905803CF4
:1042A0002403A4461C0D671E3F05DB1BE70A6405BB
:1042B000640D02D0651CED0A04D0002201231B0509
:1042C000803C24037740644497B484B296B274432C
:1042D000070C7E43150C6F4380B26843361802D337
:1042E000012000043F183004350C00197D4184463C
:1042F00088B29AB250430C0C62431F0C7C438EB2BE
:104300007E43921902D301263604A4191604170C11
:104310003618674101BC81B29AB25143040C624322
:104320001B0C5C4380B25843121802D301200004D6
:1043300024181004130C401863412D185E4100200E
:10434000474106BC88B293B258430C0C6343120C2D
:10435000544389B251435B1802D301210904641804
:1043600019041A0C091862416D1856410020474182
:1043700018BCF902720D1143F0026A0D1043ED02F0
:104380000A0D03D16D1940414941013B124E9B1B5F
:104390007600B3420ED26D0007D301300026714182
:1043A0006646354301D1400840001B05C918E407A3
:1043B0002144F0BD0BDA013306D1013004D10131C3
:1043C0004F0D01D04908F2E7E1070020F0BD0136AA
:1043D00031050020EBE70000FF030000F0B51C0DE5
:1043E000671E3F05DB1BE70A6405640D02D0661CEF
:1043F000F60A04D0002201231B05803C2403D025AB
:104400002D060026F6432E661E096E66CE0FF6199F
:10441000B44649004F0D02D07E1CF60A03D000209E
:104420000021403F3F033E1BB600B444013F7F05DF
:10443000C91B49082E6F013676089C02950D25434D
:104440007543ED137543AD1301356D10F603761BFF
:104450000CB4CC02450D2C43A2B2B3B25A43270C84
:104460007B43350C6F43A4B26C431B1902D3012468
:1044700024043F191C041D0CA4187D4124196D410E
:10448000009A91B2ACB26143170C7C432B0C5F4392
:1044900092B25A43A41802D301221204BF18220474
:1044A000230C52187B41019C6C431B19520ED901FD
:1044B0000A434401A01A81B2B2B2514303145A43D1
:1044C000360C734387B27743D617D21900277E4143
:1044D00036049B191704160C7F185E417316ED18ED
:1044E000F301002680337541A90F06D16400690AE3
:1044F000E8055B0A184309D22FE004229444803374
:104500007541A90AA8059B0A184326D34041494191
:104510002404009A019B0D005543641B4343E41A95
:1045200095B286B27543170C7E43030C5F4392B27B
:104530005A43B61802D301221204BF183204330CB6
:1045400052197B4152429C41002C02D4002201307E
:1045500051414008CA071043490802B06246D707D4
:104560009210084BD218084B9A4203D212058918B0
:10457000C919F0BD0020002A01DC3900F0BD01336B
:104580001905F5E7FD030000FE070000002200B555
:10459000203200F004F8080000BD000000220B15D6
:1045A0000AD410B5944600F031F81414013400DA3E
:1045B0000021CB17144C2047002000217047624493
:1045C000343A0CD40C2A07DA04009140904052424D
:1045D0002032D440214310BDD843D94310BD2032EE
:1045E00007D40C469440524220321141D04020431F
:1045F00010BD0800C917203203D4524220321041A6
:1046000010BD1800190010BDBF4500100A0DCC0FD9
:10461000531E1B05C91A520503D3C943404200D398
:104620000131520D03D0531CDB0A07D0121B0020AE
:104630006400611C89078912803A1203014BD21A67
:1046400070470000FF03000051434343C9188C46E4
:10465000110C83B24B4310B4040C614392B280B28C
:10466000504362431C041B0C001910BC5941130435
:10467000120CC0185141614470470000132310B55B
:1046800012481C78FFF768F90100012C0AD003DDFD
:1046900080220F4800F05EF80E48FFF755F90E4BE8
:1046A000186010BD0A4C5422200000F053F80B4B48
:1046B0006365A365E36523666366A366E3662367B4
:1046C0006367A367E3672362E361E5E7534600009E
:1046D000C02200204C3300008C3C0320E146001037
:1046E00007B5604601880A0A0230DF2AFAD1C9B24A
:1046F000820804D3028840880004104300E0006868
:10470000014A5050039007BDC022002010B504009C
:104710000AF03CFF002804D0034B04199C4200D847
:1047200010BD0248FDF7F0FD00000420B0050110A7
:1047300010B50AF035FF10BD01480421014B1847A0
:104740007015002069390010014B1B6818470000E4
:1047500070150020014B5B681847000070150020A1
:10476000030010B5080011001B68984710BDC04633
:10477000F0B546464F46D646C0B5437D80460E004E
:104780001700002B46D0002A3FDD4B1E9946244BD4
:104790000125002400209A460DE04B461B5D0D3B91
:1047A0005A425341325DDBB20A2A0BD02B0001344E
:1047B00001359F421ADD002CEFD14346325D1B7D4F
:1047C0000A2AF3D1002BF1D1A04204DA4346211A80
:1047D0001B6830189847434650461B68022198478B
:1047E000013428002B0001359F42E4DC874204DDC0
:1047F0004346391A1B6830189847F619013E33783A
:104800000D3B5A42534142461375E0BCBA46B1468D
:10481000A846F0BD0368110030009847F5E7C04690
:1048200020060110F0B5C6460B6806000C0000B566
:10483000802B06D05A1C2260E418267180BCB84632
:10484000F0BD0F4B1D68002D16D00B1D98460D4F67
:1048500002E02D69002D0FD02B68002BF9D03B68AA
:10486000002B01D0AB42F4D1280041462268FFF76B
:104870007FFF2D69002DEFD101220023DBE7C04629
:104880003438032040380320F0B5DE4657464E4604
:104890004546E0B585B017001C0006000D00FCF78A
:1048A00017FF0023314A12184B41802109068B4221
:1048B00002D301222E4B52422E4908008A460BF0A9
:1048C0001FFB01906B1C03D130000BF0F7F90500C2
:1048D000002C25D1284B9846284B1C68002C15D05D
:1048E000002F20D1264F02E02469002C0ED023682F
:1048F000002BF9D03B68002B01D0A342F4D120005B
:104900002A003100C0472469002CF0D1019B002B04
:1049100027D105B0F0BCBB46B246A946A046F0BDC3
:10492000184B9846D8E7164B994602ABDF1D0A2371
:104930009B4602E02469002CE8D02368002BF9D0C4
:104940004B461B68002B01D0A342F3D12A00310053
:104950002000C0475B460122390020003B70C04761
:10496000E8E750460BF07CFAD3E7C04640420F0020
:10497000FFFFFF7F181E002071470010343803200E
:104980004038032061470010F0B5CE46474680B559
:1049900083B06B460600DD1D2870FCF799FE0023EE
:1049A0001A4A12184B41802109068B4202D3012278
:1049B000174B52421749080088460BF0A1FA164BD4
:1049C00081461C68002C14D0144F02E02469002C8E
:1049D0000FD02368002BF9D03B68002B01D0A342F5
:1049E000F4D1200001222900FFF7C2FE2469002C27
:1049F000EFD14B46002B05D1300003B0C0BCB94607
:104A0000B046F0BD40460BF02BFAF5E740420F00F0
:104A1000FFFFFF7F181E002034380320403803209A
:104A200070B504000BF04AF90023010005000122D3
:104A30002000FFF729FF084B1C68002C06D0636894
:104A4000002B05D098472469002CF8D1280070BDB0
:104A50002469002CF3D1F9E734380320F8B5574620
:104A60004E46DE464546E0B50E00170000282CD124
:104A70001B4B1C4D1A685B6893469A461A4B994625
:104A80001A4B98464B461C68002C03D115E024694C
:104A9000002C12D02B68002B01D0A342F7D1A368C1
:104AA000002BF4D03900300098470028EFDDF0BC2F
:104AB000BB46B246A946A046F8BD43465B6A9A4546
:104AC00008D84246926A5A4502D301204042EEE796
:104AD0009A45FAD101200021FCF704FED2E7C04636
:104AE00060030110403803203438032000400540A3
:104AF000F0B54646D6464F4601380D009046C0B543
:104B0000012841D8FCF7E4FD0023214A12184B414B
:104B1000802109068B422FD21E49474608008A464B
:104B20000BF0EEF943468146013303D128000BF028
:104B3000C5F80700184B1C68002C14D0174E02E073
:104B40002469002C0FD02368002BF9D03368002B88
:104B500001D0A342F4D120003A002900FFF708FE5B
:104B60002469002CEFD14B46002B09D14046E0BC14
:104B7000BA46B146A846F0BD0122094B5242CBE7E6
:104B800050460BF06DF9F1E701235B429846EDE7E3
:104B900040420F00181E0020343803204038032004
:104BA000FFFFFF7F012040427047C0460120404286
:104BB0007047C0460A4A1368002B05D10CE01A0062
:104BC0001B691032002B07D09842F8D1002902D17E
:104BD00003691360016170470029FCD01060FAE797
:104BE00034380320F0B5CE46474680B5A3B0040064
:104BF0000D00FCF76DFD0023294A12184B4180215E
:104C000009068B4202D30122264B5242264F38001E
:104C10000BF076F900230600019322002B002348B5
:104C200001A9FEF761FE019B8046002B14D1204BA9
:104C30001C68002C06D06368002B0BD098472469B1
:104C4000002CF8D1002E25D1404623B0C0BCB94677
:104C5000B046F0BD2469ECE7154B1D689946002D60
:104C60001CD0144C02E02D69002D0FD02B68002BB6
:104C7000F9D02368002B01D0AB42F4D12800019A6F
:104C800002A9FFF775FD2D69002DEFD14B46019567
:104C90001C68CEE738000BF0E3F8D5E70195D1E7C3
:104CA00040420F00FFFFFF7F181E00202548001024
:104CB00034380320403803200FB400B583B004A972
:104CC00001C90191FFF78EFF03B008BC04B018477B
:104CD00010B500F0C7F800F0C5FA012010BDC046BD
:104CE000F0B50D1E15DD0E4B0E491A680E4B0D2743
:104CF000D3185C4263415B005E5E20214519047855
:104D0000A64207D093691942FCD101301460A84231
:104D1000F5D1F0BD93691942FCD11760F2E7C046A6
:104D2000B03C0320AC3C03200080FCBF30B5050044
:104D3000002925DD002010241B4B013D1A689369D2
:104D40001C4218D1013093691C42FCD113682B54CA
:104D50008142F4D1154B1B68002B0BD05023382116
:104D60009363536B3432194080235B011343196002
:104D7000002815D030BD0D4B1B68002BEED1F7E796
:104D80000A4B1B68002B0BD050223821064B1B68A6
:104D90009A635A6B343311408022520113431960D5
:104DA00003204042E6E7C046B03C03209037032092
:104DB000064B10B51B68002B06D00021044A126870
:104DC0009163044A1068984710BDC046903703208D
:104DD000B03C0320983703201D4BF0B51A68C64637
:104DE00098461C4B0E00D31859424B411A4F1433AE
:104DF0001C00050000B53B68002807D0002B11D02F
:104E0000164B3D601E6080BCB846F0BD002BF7D04D
:104E1000906300212000FBF771FD20001049FBF793
:104E2000C1FEEDE720000E49FBF7A0FD01212000A7
:104E3000FBF764FD4346502238211B689A635A6B86
:104E4000343311408022520113431960D8E7C04621
:104E5000B03C03200080FCBF90370320983703202C
:104E6000B14D001010B50C4B0C4C1B780C4B0221B3
:104E70001B780C4B00202360FBF730FC0221012043
:104E8000FBF72CFCE12120684902FCF719FF012106
:104E90000548FFF78FFE10BDA01E0110B03C032097
:104EA000A41E011000400340801500207047C0463A
:104EB0000022014B1A707047D33C03204B7900202D
:104EC000FF2B0BD18B79002B08D1CB79012B05D18E
:104ED000082A03D9024B8A7809301A707047C046F5
:104EE000D33C03200120704770B5012909D1154931
:104EF0005379107909781B0203430020994202D0AC
:104F000070BD0120FCE75378012B08D0022BF7D1AC
:104F1000002064220021FDF7FDF80120F0E79478DD
:104F2000D278050012021443D20502D5620A9340DA
:104F30001D000548FEF708FD7F21030021402800E1
:104F40009847C046D33C032055420000012303701C
:104F500000487047640601104B780A781B0213431F
:104F60008A7810B512041A43CB781B061343962295
:104F7000D200934200D010BD0348FEF7E5FC0021AB
:104F8000030008009847C04655420000024B1860D5
:104F9000024B19607047C046943703209C370320AA
:104FA00010B5024B1878FBF7BBFC10BDD43C0320B6
:104FB000114B70B51A68002A1AD0EFF3108172B63F
:104FC00010680028FCD0BFF35F8F00200B4A5960A7
:104FD00010701B68BFF35F8F186081F31088002486
:104FE0000025074B1878FBF79BFC2900200070BDBB
:104FF000FA240025A400F4E76C3C0320D53C0320F0
:10500000D43C032070B5040000200E0001F022FB08
:10501000002837D0002001F035FB002832D0FCF703
:1050200057FB0023194A12184B41802109068B4275
:1050300016D2174D28000AF063FF002822D0002066
:1050400001F008FB00280FD1012000210324404279
:1050500000F0CEFC644228000AF002FF200070BD80
:1050600001220C4B5242E4E7002001F00BFB002828
:10507000EAD021003200002001F010FB041EEAD12A
:10508000033CE8E703246442E8E7C04640420F00DF
:10509000943C0320FFFFFF7FF8B5DE46574680B5FE
:1050A00005000C00FCF714FB0023374A12184B4193
:1050B000802109068B4202D30122344B52423449EB
:1050C00008008A460AF01CFF002803D1C0BCBB467A
:1050D000B246F8BD002001F0BDFA00284AD00026F3
:1050E000002C43DD2B4B9B4614E0A919002001F056
:1050F00049FB070001200021404200F079FC00201C
:1051000001F004FBFCF7E4FA224BF6191860596031
:10511000B4422BDD002001F04FFBA71B0200B84278
:1051200000DD3A00002AE0D101200021404200F0D9
:105130005FFC002001F0EAFA002001F08BFA002861
:1051400014D0002001F038FB0028E1D1FCF7C0FAB0
:105150005B460F001A685B68002184460E481218EF
:105160004B419F4202D8D3D19445D1D950460AF041
:1051700077FEABE700200021064B186059605046CF
:105180000AF06EFEA2E7C04640420F00FFFFFF7F1D
:10519000943C0320B821002020A1070010B5244C26
:1051A00084B0002120000AF083FE00281CD1214B8E
:1051B0001A68002A16D0EFF3108172B61068002822
:1051C000FCD0BFF35F8F01241B48596002781B6835
:1051D000D2B20470BFF35F8F0020186081F3108893
:1051E000002A0AD004B010BD01200021404200F086
:1051F000FFFB20000AF034FEF4E7FCF743F804005C
:10520000FCF766FAFA220023920012184B41802123
:1052100009068B4202D30122084B5242012102911E
:1052200000210191064920000091FCF72FF8D9E7F1
:10523000943C03206C3C0320D53C0320FFFFFF7F00
:10524000B14F0010054B10B51868002804D0044B6E
:105250000022196801F06EF810BDC0469437032093
:105260009C370320D02310B51B0684B01C68FCF7C4
:1052700009F8FCF707F9A04202D0002004B010BDE5
:10528000274B1B7801F082FC2648FBF7FDFD01202F
:10529000FBF7CCFDFF23244C244920701840FBF77A
:1052A00065FB20780121FBF729FB0520FBF740FB7C
:1052B000002827D1FBF7E6FF0400FCF709FAFA22E1
:1052C0000023920012184B41802109068B4202D321
:1052D0000122174B524201210291002101911549EF
:1052E00020000091FBF7D2FF0822040000211248A1
:1052F000FFF72AFA002CC0DB10480121FFF75AFC07
:105300000120BBE700220E490520FBF759FBFBF704
:10531000D7FA094B01001800FBF7E2FDECE7C046A5
:10532000A81E0110943C0320D43C03209D51001082
:10533000FFFFFF7FB14F00106C3C03209815002049
:10534000A14F0010004870471C070110004870472B
:10535000C806011070B5040017480378002B21D04F
:10536000002C06D1154B16484380063BFF3B0380BB
:1053700070BD052C1DD8134B1148A400E558811CA5
:10538000002304E001330A800231132B0ED0EA5CC3
:10539000DCB2002AF6D1C0230134E4B264009B00E1
:1053A0002343E4E7112100F017F8D9E7CA239B0053
:1053B000DDE70020DCE7C046B43C03200904000020
:1053C0000C3803203007011010B5024800F0D8F85F
:1053D00010BDC046843C032030B54B1E012900D1CE
:1053E000A7E0664A11780D112C0030349F2900D9AE
:1053F000A2E00470012B00D1BEE00F2114782140FF
:105400000C003034092900DD98E04470022B00D1F3
:10541000B2E054782511290030319F2C00D990E05A
:105420008170032B00D1A7E00F2121400C00303404
:10543000092900DD87E0C470042B00D19CE094783A
:105440002511290030319F2C00D97FE00171052BF7
:1054500000D191E00F2121400C003034092900DDFA
:1054600076E04471062B00D186E0D478251129001E
:1054700030319F2C00D96EE08171072B00D17BE089
:105480000F2121400C003034092966DCC471082B3F
:1054900000D171E014792511290030319F2C5FD89B
:1054A0000172092B68D00F2121400C0030340929EA
:1054B00058DC44720A2B5FD0547925112900303111
:1054C0009F2C52D881720B2B56D00F2121400C00FB
:1054D000303409294BDCC4720C2B4DD09479251142
:1054E000290030319F2C00D9073101730D2B43D097
:1054F0000F2121400C003034092901DD37310C0027
:1055000044730E2B38D0D1790C11220030329F29F0
:1055100000D9073282730F2B2ED00F220A401100C0
:105520003731092A01DC30321100C173102B23D02E
:1055300010300023037030BD07345AE737310C00B8
:1055400063E707316CE737310C0074E707317DE71B
:1055500037310C0085E707318EE737310C0095E7CE
:1055600007319DE737310C00A3E70731AAE7373150
:105570000C00C4720C2BB1D1C018DAE7843C0320B4
:1055800030B5002589B004000922002101A800954A
:10559000FFF7DAF80922002105A80495FFF7D4F8EF
:1055A0004B236A466846137004A90D220AF050FC8A
:1055B0001521082220006944FFF7CCF809B030BD5E
:1055C00010B501210520FBF799F910BD10B5002297
:1055D0000021024800F05AF910BDC0466838032087
:1055E0008022024B5202DA647047C04600201150FC
:1055F000F0B5C64600B5060000F022F90C231B4D9D
:10560000FF22AB6705201A49FBF7DAF940239846D9
:10561000184C402200212000FFF796F8434601274E
:10562000238321210023144A6770A260136063540E
:105630005F31618441462187053963540F4A10491F
:105640006360E260A1620B606362E2620AF048FCA0
:1056500080239B052F64EB6490230A4A3000EA50B4
:10566000FFF7BEFF80BCB846F0BDC0460000115039
:10567000BD05002048380320840010500001105060
:105680008000105010D001000B785B0602D14B78DF
:10569000052B00D070478A78014B1A60FAE7C046A4
:1056A00000001150F0B5C64600B5CC7888780A796C
:1056B0004B797F21A40701401B02C50913434F000A
:1056C000A20F1400324E7A195201B21890700120C4
:1056D0006840507000205B055B0DD0701383D4765A
:1056E0008046CA00012D33D02A488446880162448E
:1056F0008446B4446046826040461060002933D03E
:10570000254AC90090466246414451603F223F33DA
:105710009343022C00D15B0020487A1901685201A2
:10572000B218D1601E4ACB18036051405A40802302
:1057300088465B019A4228D84346A4061C4380232E
:105740007F197F01F61972681B062343136011E06D
:1057500014488446880162448446B44460468262A8
:1057600040461060002909D100236D0175196B6056
:105770000D4BEB60012080BCB846F0BD084AC90063
:105780009046624641445162C0E7FCF7D5FDD3E73D
:10579000483803208400105004001050503C03206F
:1057A00000001050800010500001105010B50AF099
:1057B00097FB10BD10B57F200C0020404000E4098D
:1057C000110000191A00034B4001C01800F05EF8E8
:1057D000012010BD483803207F23180010B5084071
:1057E0000B420BD0C90980224000074B40184001F2
:1057F0000021C01812010AF0A3FB10BD0223034AC6
:10580000C9095B1A9366EEE748380320002011505F
:105810007F22130010B50B400A4200D110BDC90908
:105820005B005B1804485B01C01800230022034999
:10583000C3700AF085FBF1E748380320FFF7FFFF4C
:1058400080220D4B520410B51A600C4B0C491A60A3
:1058500010008B689843FBD10A4C9C220021200049
:10586000FEF772FF8022002152010748FEF76CFF0D
:105870000923636710BDC04600E0004000F000400F
:1058800000C00040000011500000105070B5837E31
:1058900004000D001600002B17D10023E382013312
:1058A0002000A682A37625610AF0F2FA002804D02F
:1058B00080219023084A8902D15020000AF018FB69
:1058C000002805D00123237770BD0AF029FBE4E707
:1058D00020000AF01DFBF7E700201150024B58781A
:1058E000431E9841C0B2704724280020024B18780C
:1058F0004007C00F7047C04624280020034B18788B
:10590000FF38431E9841C0B27047C046D4150020EE
:10591000F8B5CE46474680B52B4E050033780120BA
:10592000FF2B03D0C0BCB946B046F8BD53220021BE
:105930002648FEF709FF264C2000FBF7A5FA254B69
:105940001C60254C20001430FBF7BAFA200001F04F
:10595000E3FB224B224F1C60224B9846002B04D0C5
:105960003800FFF7F3FA204B1860424600243B78DA
:10597000002A22D01D4A90461B4A9146A34212D8C3
:105980000FD14346984701343B78E4B2A342F5D2A5
:1059900028003570FFF72CFE2800FFF711FE0120CC
:1059A000C0E70020BEE74A46630012681B19DB000F
:1059B000D318002BF5D01B68E4E700F009FF3B7813
:1059C0000020002BAED1E3E7D415002024280020CE
:1059D000DC27002078280020B81500207C28002033
:1059E000CB3C03204D4F0010FC240020D167001059
:1059F000F0B5DE4657464E464546E0B58DB001F05F
:105A0000CBF8002800D114E1CC4BCD4D9946CD4BBD
:105A1000CA461F0009AC2E687269EFF3108172B696
:105A20001368002BFCD0BFF35F8FB1613000210001
:105A300001F0BAF97269B369BFF35F8F0021116099
:105A400083F31088002800D1F3E06378082BE2D8B4
:105A500052469B00D3589F466368002BDBD0A0685A
:105A60009847D8E77F202179B64E08404300F318C5
:105A70009846CA099044464601233036F2789A4344
:105A8000F270F27803339A43F270002800D1F3E009
:105A90004346AD4ADB7C002A06D0AC4A12789342DA
:105AA00000D267E19B1ADBB2002B00D0C1E0A84E08
:105AB000A36862792078B047ADE701223B780121E5
:105AC00013433B7033230420FA5C8A43FA54FA5C94
:105AD0008243FA540133FA5C8A43FA54FA5C8243F3
